{
  "_format": "hh-sol-artifact-1",
  "contractName": "SignalRegistry",
  "sourceName": "contracts/SignalRegistry.sol",
  "abi": [
    {
      "anonymous": false,
      "inputs": [
        {
          "indexed": true,
          "internalType": "address",
          "name": "creator",
          "type": "address"
        },
        {
          "indexed": true,
          "internalType": "string",
          "name": "contentHash",
          "type": "string"
        },
        {
          "indexed": false,
          "internalType": "uint256",
          "name": "timestamp",
          "type": "uint256"
        },
        {
          "indexed": false,
          "internalType": "string",
          "name": "category",
          "type": "string"
        }
      ],
      "name": "SignalRegistered",
      "type": "event"
    },
    {
      "inputs": [
        {
          "internalType": "address",
          "name": "creator",
          "type": "address"
        }
      ],
      "name": "getCreatorSignals",
      "outputs": [
        {
          "internalType": "string[]",
          "name": "",
          "type": "string[]"
        }
      ],
      "stateMutability": "view",
      "type": "function"
    },
    {
      "inputs": [
        {
          "internalType": "string",
          "name": "contentHash",
          "type": "string"
        }
      ],
      "name": "getSignalByHash",
      "outputs": [
        {
          "components": [
            {
              "internalType": "string",
              "name": "contentHash",
              "type": "string"
            },
            {
              "internalType": "uint256",
              "name": "timestamp",
              "type": "uint256"
            },
            {
              "internalType": "address",
              "name": "creator",
              "type": "address"
            },
            {
              "internalType": "string",
              "name": "category",
              "type": "string"
            }
          ],
          "internalType": "struct SignalRegistry.Signal",
          "name": "",
          "type": "tuple"
        }
      ],
      "stateMutability": "view",
      "type": "function"
    },
    {
      "inputs": [
        {
          "internalType": "address",
          "name": "creator",
          "type": "address"
        }
      ],
      "name": "getSignalCount",
      "outputs": [
        {
          "internalType": "uint256",
          "name": "",
          "type": "uint256"
        }
      ],
      "stateMutability": "view",
      "type": "function"
    },
    {
      "inputs": [
        {
          "internalType": "string",
          "name": "contentHash",
          "type": "string"
        },
        {
          "internalType": "string",
          "name": "category",
          "type": "string"
        }
      ],
      "name": "registerSignal",
      "outputs": [],
      "stateMutability": "nonpayable",
      "type": "function"
    },
    {
      "inputs": [
        {
          "internalType": "address",
          "name": "",
          "type": "address"
        },
        {
          "internalType": "uint256",
          "name": "",
          "type": "uint256"
        }
      ],
      "name": "signalHashes",
      "outputs": [
        {
          "internalType": "string",
          "name": "",
          "type": "string"
        }
      ],
      "stateMutability": "view",
      "type": "function"
    },
    {
      "inputs": [
        {
          "internalType": "string",
          "name": "",
          "type": "string"
        }
      ],
      "name": "signals",
      "outputs": [
        {
          "internalType": "string",
          "name": "contentHash",
          "type": "string"
        },
        {
          "internalType": "uint256",
          "name": "timestamp",
          "type": "uint256"
        },
        {
          "internalType": "address",
          "name": "creator",
          "type": "address"
        },
        {
          "internalType": "string",
          "name": "category",
          "type": "string"
        }
      ],
      "stateMutability": "view",
      "type": "function"
    },
    {
      "inputs": [],
      "name": "totalSignals",
      "outputs": [
        {
          "internalType": "uint256",
          "name": "",
          "type": "uint256"
        }
      ],
      "stateMutability": "view",
      "type": "function"
    },
    {
      "inputs": [
        {
          "internalType": "string",
          "name": "contentHash",
          "type": "string"
        },
        {
          "internalType": "address",
          "name": "creator",
          "type": "address"
        }
      ],
      "name": "verifySignal",
      "outputs": [
        {
          "internalType": "bool",
          "name": "",
          "type": "bool"
        }
      ],
      "stateMutability": "view",
      "type": "function"
    }
  ],
  "bytecode": "0x608060405234801561001057600080fd5b50610ef9806100206000396000f3fe608060405234801561001057600080fd5b50600436106100885760003560e01c80636358d7c91161005b5780636358d7c91461010c57806390ed57881461012c578063efd4cdcd14610141578063f8ab89621461016a57600080fd5b80631ab18dfd1461008d5780632f7a0bf4146100a9578063345ee809146100cc5780634f132814146100ec575b600080fd5b61009660025481565b6040519081526020015b60405180910390f35b6100bc6100b7366004610a66565b61018d565b6040516100a09493929190610aeb565b6100df6100da366004610b4d565b6102de565b6040516100a09190610b77565b6100ff6100fa366004610b91565b610397565b6040516100a09190610bac565b61011f61011a366004610a66565b610484565b6040516100a09190610c0e565b61013f61013a366004610c6c565b61062d565b005b61009661014f366004610b91565b6001600160a01b031660009081526020819052604090205490565b61017d610178366004610cd0565b610822565b60405190151581526020016100a0565b80516020818301810180516001825292820191909301209152805481906101b390610d1e565b80601f01602080910402602001604051908101604052809291908181526020018280546101df90610d1e565b801561022c5780601f106102015761010080835404028352916020019161022c565b820191906000526020600020905b81548152906001019060200180831161020f57829003601f168201915b5050505060018301546002840154600385018054949592946001600160a01b0390921693509061025b90610d1e565b80601f016020809104026020016040519081016040528092919081815260200182805461028790610d1e565b80156102d45780601f106102a9576101008083540402835291602001916102d4565b820191906000526020600020905b8154815290600101906020018083116102b757829003601f168201915b5050505050905084565b600060205281600052604060002081815481106102fa57600080fd5b9060005260206000200160009150915050805461031690610d1e565b80601f016020809104026020016040519081016040528092919081815260200182805461034290610d1e565b801561038f5780601f106103645761010080835404028352916020019161038f565b820191906000526020600020905b81548152906001019060200180831161037257829003601f168201915b505050505081565b6001600160a01b038116600090815260208181526040808320805482518185028101850190935280835260609492939192909184015b828210156104795783829060005260206000200180546103ec90610d1e565b80601f016020809104026020016040519081016040528092919081815260200182805461041890610d1e565b80156104655780601f1061043a57610100808354040283529160200191610465565b820191906000526020600020905b81548152906001019060200180831161044857829003601f168201915b5050505050815260200190600101906103cd565b505050509050919050565b6104b86040518060800160405280606081526020016000815260200160006001600160a01b03168152602001606081525090565b6001826040516104c89190610d58565b90815260200160405180910390206040518060800160405290816000820180546104f190610d1e565b80601f016020809104026020016040519081016040528092919081815260200182805461051d90610d1e565b801561056a5780601f1061053f5761010080835404028352916020019161056a565b820191906000526020600020905b81548152906001019060200180831161054d57829003601f168201915b50505091835250506001820154602082015260028201546001600160a01b031660408201526003820180546060909201916105a490610d1e565b80601f01602080910402602001604051908101604052809291908181526020018280546105d090610d1e565b801561061d5780601f106105f25761010080835404028352916020019161061d565b820191906000526020600020905b81548152906001019060200180831161060057829003601f168201915b5050505050815250509050919050565b60008251116106835760405162461bcd60e51b815260206004820152601c60248201527f436f6e74656e7420686173682063616e6e6f7420626520656d7074790000000060448201526064015b60405180910390fd5b6001826040516106939190610d58565b90815260405190819003602001902080546106ad90610d1e565b1590506106f45760405162461bcd60e51b81526020600482015260156024820152745369676e616c20616c72656164792065786973747360581b604482015260640161067a565b336000908152602081815260408220805460018101825590835291200161071b8382610dc3565b5060408051608081018252838152426020820152338183015260608101839052905160019061074b908590610d58565b908152604051908190036020019020815181906107689082610dc3565b506020820151600182015560408201516002820180546001600160a01b0319166001600160a01b03909216919091179055606082015160038201906107ad9082610dc3565b505060028054915060006107c083610e83565b9190505550816040516107d39190610d58565b6040518091039020336001600160a01b03167f7fd0fb7961108a1c16d684ee314eb3b7ea74e402bc24ecde45070df6064a992f4284604051610816929190610eaa565b60405180910390a35050565b6000806001846040516108359190610d58565b908152602001604051809103902060405180608001604052908160008201805461085e90610d1e565b80601f016020809104026020016040519081016040528092919081815260200182805461088a90610d1e565b80156108d75780601f106108ac576101008083540402835291602001916108d7565b820191906000526020600020905b8154815290600101906020018083116108ba57829003601f168201915b50505091835250506001820154602082015260028201546001600160a01b0316604082015260038201805460609092019161091190610d1e565b80601f016020809104026020016040519081016040528092919081815260200182805461093d90610d1e565b801561098a5780601f1061095f5761010080835404028352916020019161098a565b820191906000526020600020905b81548152906001019060200180831161096d57829003601f168201915b5050505050815250509050826001600160a01b031681604001516001600160a01b03161480156109bb575080515115155b949350505050565b634e487b7160e01b600052604160045260246000fd5b600082601f8301126109ea57600080fd5b813567ffffffffffffffff80821115610a0557610a056109c3565b604051601f8301601f19908116603f01168101908282118183101715610a2d57610a2d6109c3565b81604052838152866020858801011115610a4657600080fd5b836020870160208301376000602085830101528094505050505092915050565b600060208284031215610a7857600080fd5b813567ffffffffffffffff811115610a8f57600080fd5b6109bb848285016109d9565b60005b83811015610ab6578181015183820152602001610a9e565b50506000910152565b60008151808452610ad7816020860160208601610a9b565b601f01601f19169290920160200192915050565b608081526000610afe6080830187610abf565b602083018690526001600160a01b03851660408401528281036060840152610b268185610abf565b979650505050505050565b80356001600160a01b0381168114610b4857600080fd5b919050565b60008060408385031215610b6057600080fd5b610b6983610b31565b946020939093013593505050565b602081526000610b8a6020830184610abf565b9392505050565b600060208284031215610ba357600080fd5b610b8a82610b31565b6000602080830181845280855180835260408601915060408160051b870101925083870160005b82811015610c0157603f19888603018452610bef858351610abf565b94509285019290850190600101610bd3565b5092979650505050505050565b602081526000825160806020840152610c2a60a0840182610abf565b90506020840151604084015260018060a01b0360408501511660608401526060840151601f19848303016080850152610c638282610abf565b95945050505050565b60008060408385031215610c7f57600080fd5b823567ffffffffffffffff80821115610c9757600080fd5b610ca3868387016109d9565b93506020850135915080821115610cb957600080fd5b50610cc6858286016109d9565b9150509250929050565b60008060408385031215610ce357600080fd5b823567ffffffffffffffff811115610cfa57600080fd5b610d06858286016109d9565b925050610d1560208401610b31565b90509250929050565b600181811c90821680610d3257607f821691505b602082108103610d5257634e487b7160e01b600052602260045260246000fd5b50919050565b60008251610d6a818460208701610a9b565b9190910192915050565b601f821115610dbe57600081815260208120601f850160051c81016020861015610d9b5750805b601f850160051c820191505b81811015610dba57828155600101610da7565b5050505b505050565b815167ffffffffffffffff811115610ddd57610ddd6109c3565b610df181610deb8454610d1e565b84610d74565b602080601f831160018114610e265760008415610e0e5750858301515b600019600386901b1c1916600185901b178555610dba565b600085815260208120601f198616915b82811015610e5557888601518255948401946001909101908401610e36565b5085821015610e735787850151600019600388901b60f8161c191681555b5050505050600190811b01905550565b600060018201610ea357634e487b7160e01b600052601160045260246000fd5b5060010190565b8281526040602082015260006109bb6040830184610abf56fea2646970667358221220313ebae4369f1994110a379bba539946727058224bf4df958a2025298cfa976364736f6c63430008130033",
  "linkReferences": {},
  "deployedLinkReferences": {}
}